:020000040800F2
:1000000000280020C9120008791100087F1100089B
:10001000851100088B1100089111000800000000F4
:100020000000000000000000000000009711000820
:10003000A311000800000000AF110008BB11000868
:100040001113000811130008111300081113000800
:1000500011130008111300081113000811130008F0
:1000600011130008111300081113000811130008E0
:1000700011130008111300081113000811130008D0
:1000800011130008111300081113000811130008C0
:1000900011130008111300081113000811130008B0
:1000A00011130008111300081113000811130008A0
:1000B000C911000811130008000000001113000806
:1000C00011130008000000000000000011130008D8
:1000D00000000000111300081113000800000000C8
:1000E000111300081113000811130008000000008C
:1000F0000000000000000000000000000000000000
:0C01000000000000000000005FF808F1A3
:10010C0010B5054C237833B9044B13B10448AFF345
:10011C0000800123237010BD3C0000200000000073
:10012C004029000808B5034B1BB103490348AFF342
:10013C00008008BD0000000040000020402900089D
:10014C0080B500AF012001F069F80346002B00F0E8
:10015C008380424B1B68012B7ED1414B1B685A1E7E
:10016C003F490A60184600F015FE3E4B1B685A1EAC
:10017C003C490A60184600F055FE3B4B1B68073B98
:10018C00032B5BD801A252F823F000BFA901000891
:10019C00CD010008F90100081D020008032000F041
:1001AC0053FC052000F07EFC2E4B1B68002B47D126
:1001BC002E4B1B682B4A13602B4B08221A603FE016
:1001CC00032000F041FC062000F06CFC254B1B6862
:1001DC00002B37D1264B1B68214A1360254B1B681B
:1001EC00204A1360204B09221A602BE0052000F0F6
:1001FC002BFC032000F056FC194B1B68002B23D161
:10020C001A4B1B68164A1360174B0A221A601BE024
:10021C00062000F019FC032000F044FC104B1B6876
:10022C00002B13D1134B1B680D4A1360104B1B682A
:10023C000C4A13600C4B07221A6007E000BF06E063
:10024C0000BF04E000BF02E000BF00E000BF4FF4BD
:10025C007A71012000F0C2FF00BF80BD5800002061
:10026C006C00002070000020000000201000002016
:10027C00140000200C00002080B500AF2B4B1B6835
:10028C00022B07D0294B1B68032B03D0274B1B6871
:10029C00042B43D1264B1B680B3B032B40D801A2EC
:1002AC0052F823F02D030008C1020008E1020008F7
:1002BC00150300081F4B1B6801331E4A13601D4BAE
:1002CC001B68632B02DD1B4B01221A60184B0B229F
:1002DC001A602AE0012000F0A1FF0346002B21D078
:1002EC00144B1B680133134A1360124B1B68632BAE
:1002FC0002DD104B01221A600D4B0B221A60642197
:10030C00012000F06BFF0DE0022000F087FF034698
:10031C00002B09D0064B0B221A6006E000BF04E04C
:10032C0000BF02E000BF00E000BF80BD580000200D
:10033C00040000200800002080B500AF002000F071
:10034C006DFF0346002B40D0214B1B68062B23D896
:10035C0001A252F823F000BF81030008A503000896
:10036C00870300088D030008930300089903000815
:10037C009F03000800F030F80FE000F03BF80CE0B1
:10038C0000F052F809E000F069F806E000F080F89F
:10039C0003E000F084F800E000BF0D4B1B68002B5D
:1003AC0014D00C4B1B68042B02D10A4B00221A6090
:1003BC00084B1B685A1C07490A60184600F040FCA1
:1003CC00FA21002000F00AFF00E000BF80BD00BF52
:1003DC00580000205C00002080B500AF002000F029
:1003EC0033FB002000F05EFB4FF0FF3000F028FCE8
:1003FC0000BF80BD80B500AF094B1B680E2B04D12C
:10040C004FF0FF3000F00EFD04E0064B1B68184661
:10041C0000F008FD032000F073FB00BF80BD00BF9F
:10042C00040000200800002080B500AF094B1B68B9
:10043C000E2B04D14FF0FF3000F0F4FC04E0064B1F
:10044C001B68184600F0EEFC062000F059FB00BFBC
:10045C0080BD00BF040000200800002080B500AF64
:10046C00094B1B680E2B04D14FF0FF3000F0DAFC67
:10047C0004E0064B1B68184600F0D4FC052000F085
:10048C003FFB00BF80BD00BF04000020080000201F
:10049C0080B500AF052000F033FB00BF80BD80B5F8
:1004AC0000AF022000F02CFB00BF80BD80B582B0F5
:1004BC0000AF00237B6053E02D4A7B6813441B780C
:1004CC00022B36D0022B48DC002B02D0012B11D092
:1004DC0043E07B68DBB2184600F082FA0346002B3F
:1004EC0038D0234A7B68134401221A70786800F0D4
:1004FC00F1F82FE07B68DBB2184600F071FA034686
:10050C00002B05D11A4A7B68134400221A7023E091
:10051C007B68DBB2184600F07DFA0346002B1BD03B
:10052C00134A7B68134402221A70786800F0ACF905
:10053C0012E07B68DBB2184600F052FA0346002B3F
:10054C0004D10B4A7B68134400221A70786800F0BF
:10055C00ABF902E000BF00E000BF7B6801337B60B9
:10056C007B68022BA8DD00BF00BF0837BD4680BDED
:10057C007400002080B500AF494B00221A600720A0
:10058C0000F062FA072000F08DFA6421002000F0E0
:10059C0025FE6421012000F021FE0021022000F044
:1005AC001DFE404B1B68013B052B76D801A252F86F
:1005BC0023F000BFD90500083306000847060008E1
:1005CC005B0600088D0600086F060008364B1B689A
:1005DC00002B13D0354B1B68002B0FD0344B1B68F2
:1005EC00002B0BD0304B1B68324A13602F4B1B680F
:1005FC00314A13602E4B1B68304A13602A4B002281
:10060C001A602A4B00221A60294B00221A60294BCF
:10061C001B682B4A1360284B1B682A4A13602A4B11
:10062C0007221A603AE0294B0B221A60022000F0D4
:10063C00B1FB274B01221A6030E0244B0B221A60CD
:10064C00032000F0A7FB224B01221A6026E01F4B6F
:10065C000B221A60042000F09DFB1D4B01221A6036
:10066C001CE0062000F0F0F9062000F01BFA6FF0F9
:10067C00010000F08FFB6FF0020000F0D3FB0DE0E7
:10068C006FF0010000F086FB074B1A68084B1B68E3
:10069C00D31A184600F0C6FB00E000BF80BD00BFB7
:1006AC005C00002058000020600000206400002046
:1006BC00680000200C000020140000201000002016
:1006CC006C000020700000200000002004000020BE
:1006DC000800002080B582B000AF7860072000F0E1
:1006EC000FFA7B68022B4FD07B68022B00F3BC8087
:1006FC007B68002B03D07B68012B35D0B4E05C4BBE
:10070C001B68062B2CD801A252F823F035070008E1
:10071C003D070008450700084D070008550700086D
:10072C005D07000865070008514B01221A6018E0AC
:10073C004F4B02221A6014E04D4B03221A6010E05A
:10074C004B4B04221A600CE0494B01221A6008E062
:10075C00474B02221A6004E0454B02221A6000E06B
:10076C0000BFFFF707FF7FE0414B1B68022B07D050
:10077C003F4B1B68042B03D03D4B1B68032B70D1E4
:10078C003C4B0C221A606CE0394B1B68023B042B6F
:10079C0069D801A252F823F0B9070008D307000862
:1007AC000D08000855080008730800084FF4FA619A
:1007BC00022000F013FD304B1B68304A13602D4BA8
:1007CC000E221A6050E02C4B1A682C4B1B689A4274
:1007DC0003DB2A4B1B68002B0CD14FF4FA6102206F
:1007EC0000F0FCFC244B1B68254A1360214B0E22A5
:1007FC001A6039E01E4B06221A60FFF7BBFE33E08D
:10080C001E4B1A681E4B1B68D21A1B4B1B689A4254
:10081C0007D01A4B1B68002B03D0194B1B68002BFD
:10082C000CD14FF4FA61022000F0D8FC124B1B687B
:10083C00144A13600F4B0E221A6015E00C4B052264
:10084C001A60FFF797FE0FE00C4B1A680C4B1B68F5
:10085C00D31A0C4A1360064B01221A60FFF78AFE6A
:10086C0002E000BF00E000BF00BF0837BD4680BDFE
:10087C005800002004000020080000206000002028
:10088C00680000206400002080B582B000AF786062
:10089C007B68012B04D16421012000F09FFC00E057
:1008AC0000BF0837BD4680BD80B483B000AF786010
:1008BC007B68012B03D1044B0D221A6000E000BFB2
:1008CC000C37BD4680BC70470400002080B582B058
:1008DC0000AF00237B606FE07B68022B17D07B6836
:1008EC00022B1BDC7B68002B03D07B68012B07D011
:1008FC0014E00421344800F0F1FF0346FB7010E0D3
:10090C000821314800F0EAFF0346FB7009E0102192
:10091C002D4800F0E3FF0346FB7002E00123FB705F
:10092C0000BF2A4A7B6813441978294A7B68134410
:10093C000A461A70254A7B681344FA781A70234ABF
:10094C007B6813441A7822497B680B441B789A42C3
:10095C0008D11E4A7B68134419781E4A7B681344DD
:10096C000A461A701B4A7B6813441B78002B16D15D
:10097C00194A7B6832F81330632B0AD8164A7B6805
:10098C0032F81330013399B2134A7B6822F81310F2
:10099C000FE0124A7B68134401221A7009E00E4AD8
:1009AC007B68002122F813100C4A7B681344002248
:1009BC001A707B6801337B607B68022B8CDD00BF77
:1009CC0000BF0837BD4680BD000801401C00002058
:1009DC0020000020180000207C000020780000205F
:1009EC0080B483B000AF0346FB71FB79022B01D9B5
:1009FC00002307E0FB79064AD35C002B0CBF0123D4
:100A0C000023DBB218460C37BD4680BC704700BFD4
:100A1C001800002080B483B000AF0346FB71FB7953
:100A2C00022B01D9FF2307E0FB79064AD35C012B8B
:100A3C000CBF01230023DBB218460C37BD4680BC2B
:100A4C00704700BF7800002080B582B000AF03462D
:100A5C00FB71FB799B08DBB203F00103DBB21A4696
:100A6C004FF480610E4800F050FFFB795B08DBB25D
:100A7C0003F00103DBB21A464FF40061084800F0A2
:100A8C0044FFFB7903F00103DBB21A464FF48051AB
:100A9C00034800F03AFF00BF0837BD4680BD00BFD9
:100AAC000008014080B582B000AF0346FB71FB79B2
:100ABC009B08DBB203F00103DBB21A464FF4005182
:100ACC000E4800F022FFFB795B08DBB203F0010358
:100ADC00DBB21A464FF48041084800F016FFFB7950
:100AEC0003F00103DBB21A464FF40041034800F057
:100AFC000CFF00BF0837BD4680BD00BF0008014099
:100B0C0080B582B000AF0346FB71FB79072B03D194
:100B1C0020211C4800F011FFFB799B08DBB203F08D
:100B2C000103002B09D14FF48061164800F005FF3A
:100B3C004FF40051134800F000FFFB795B08DBB267
:100B4C0003F00103002B09D14FF400610D4800F0B4
:100B5C00F4FE4FF480410B4800F0EFFEFB7903F0FC
:100B6C000103002B09D14FF48051064800F0E5FE3B
:100B7C004FF40041034800F0E0FE00BF0837BD46CB
:100B8C0080BD00BF0008014080B584B000AF786024
:100B9C00294A7B6813441B78FB73FB7B03F001032E
:100BAC00DBB21A460121254800F0AFFEFB7B5B0847
:100BBC00DBB203F00103DBB21A4602211F4800F03E
:100BCC00A4FEFB7B9B08DBB203F00103DBB21A46ED
:100BDC0004211A4800F099FEFB7BDB08DBB203F022
:100BEC000103DBB21A460821144800F08EFEFB7B91
:100BFC001B09DBB203F00103DBB21A4610210F48CC
:100C0C0000F083FEFB7B5B09DBB203F00103DBB27C
:100C1C001A462021094800F078FEFB7B9B09DBB2C9
:100C2C0003F00103DBB21A464021044800F06DFECC
:100C3C0000BF1037BD4680BD58290008000C01408C
:100C4C0080B582B000AF78607B680133042B00F272
:100C5C00978001A252F823F0790C0008AD0C000823
:100C6C00E50C00081D0D0008550D00080022402160
:100C7C00464800F04AFE00228021444800F045FE20
:100C8C0000224FF48071414800F03FFE00224FF4E7
:100C9C0000713E4800F039FE0820FFF775FF70E048
:100CAC0000224021394800F030FE012280213748D3
:100CBC0000F02BFE01224FF48071344800F025FE29
:100CCC0001224FF40071314800F01FFE304B1B68BD
:100CDC001846FFF759FF54E0012240212B4800F041
:100CEC0014FE00228021294800F00FFE01224FF44F
:100CFC008071264800F009FE01224FF40071234850
:100D0C0000F003FE224B5B681846FFF73DFF38E00E
:100D1C00012240211D4800F0F8FD012280211B48D2
:100D2C0000F0F3FD00224FF48071184800F0EDFD47
:100D3C0001224FF40071154800F0E7FD144B9B683D
:100D4C001846FFF721FF1CE0012240210F4800F05C
:100D5C00DCFD012280210D4800F0D7FD01224FF46B
:100D6C0080710A4800F0D1FD00224FF40071074851
:100D7C0000F0CBFD064BDB681846FFF705FF00E0E3
:100D8C0000BF00BF0837BD4680BD00BF0008014052
:100D9C008400002080B483B000AF78607B68002BA7
:100DAC0017DB7B681D4A82FB03129210DB17D31AE8
:100DBC001B4A13607968194B83FB01239A10CB17DC
:100DCC00D21A13469B0013445B00CA1A144B5A6088
:100DDC0020E07B68B3F1FF3F06D1114B0A221A6069
:100DEC000F4B0B225A6015E07B6813F1020F06D1F2
:100DFC000B4B0C221A600A4B0D225A600AE07B68DE
:100E0C0013F1030F06D1064B0E221A60044B0A2273
:100E1C005A6000BF0C37BD4680BC7047676666667B
:100E2C008400002080B483B000AF78607B68002B16
:100E3C0017DB7B681D4A82FB03129210DB17D31A57
:100E4C001B4A93607968194B83FB01239A10CB17CB
:100E5C00D21A13469B0013445B00CA1A144BDA6077
:100E6C0020E07B68B3F1FF3F06D1114B0A229A6058
:100E7C000F4B0B22DA6015E07B6813F1020F06D1E1
:100E8C000B4B0C229A600A4B0D22DA600AE07B684D
:100E9C0013F1030F06D1064B0E229A60044B0A2263
:100EAC00DA6000BF0C37BD4680BC7047676666666B
:100EBC008400002080B500AF00F026FA00F012F894
:100ECC0000F098F800F04AF8054801F07BF9FFF7BC
:100EDC00EDFAFFF735F9FFF7CFF9FFF72DFAF6E743
:100EEC00A000002080B590B000AF07F118032822B5
:100EFC000021184601F016FD3B1D00221A605A60B5
:100F0C009A60DA601A610223BB610123BB62102371
:100F1C00FB6200237B6307F11803184600F026FDE3
:100F2C000346002B01D000F0C5F80F237B60002393
:100F3C00BB600023FB6000233B6100237B613B1DF6
:100F4C000021184600F092FF0346002B01D000F060
:100F5C00B1F800BF4037BD4680BD000080B586B0FB
:100F6C0000AF07F1080300221A605A609A60DA6039
:100F7C003B4600221A605A601D4B4FF080421A60AB
:100F8C001B4B41F63F725A60194B00229A60184B6A
:100F9C000922DA60164B00221A61154B00229A6165
:100FAC00134801F0BFF80346002B01D000F082F883
:100FBC004FF48053BB6007F1080319460C4801F04D
:100FCC003DFA0346002B01D000F074F800233B607F
:100FDC0000237B603B461946054801F015FC03468F
:100FEC00002B01D000F066F800BF1837BD4680BD5D
:100FFC00A000002080B586B000AF07F108030022E6
:10100C001A605A609A60DA60274B9B69264A43F053
:10101C0004039361244B9B6903F004037B607B689E
:10102C00214B9B69204A43F0080393611E4B9B693B
:10103C0003F008033B603B6800224FF6E0711B484D
:10104C0000F063FC00227F21194800F05EFC1C2399
:10105C00BB600023FB6000233B6107F108031946CA
:10106C00124800F0C1FA4FF6E073BB600123FB603D
:10107C0000233B6102237B6107F1080319460B48EF
:10108C0000F0B2FA7F23BB600123FB6000233B61BD
:10109C0002237B6107F108031946054800F0A4FA06
:1010AC0000BF1837BD4680BD00100240000801404B
:1010BC00000C014080B400AF72B600BFFEE7000028
:1010CC0080B485B000AF154B9B69144A43F0010303
:1010DC009361124B9B6903F00103BB60BB680F4B20
:1010EC00DB690E4A43F08053D3610C4BDB6903F090
:1010FC0080537B607B680A4B5B68FB60FB6823F06A
:10110C00E063FB60FB6843F08063FB60044AFB68B0
:10111C00536000BF1437BD4680BC704700100240BE
:10112C000000014080B584B000AF78607B681B681C
:10113C00B3F1804F13D10C4BDB690B4A43F0010325
:10114C00D361094BDB6903F00103FB60FB680022F0
:10115C0000211C2000F011FA1C2000F02AFA00BF1C
:10116C001037BD4680BD00BF0010024080B400AFF8
:10117C00FEE780B400AFFEE780B400AFFEE780B4BA
:10118C0000AFFEE780B400AFFEE780B400AF00BF55
:10119C00BD4680BC704780B400AF00BFBD4680BC6C
:1011AC00704780B400AF00BFBD4680BC704780B5AF
:1011BC0000AF00F0EFF800BF80BD000080B500AFBD
:1011CC00024801F04BF800BF80BD00BFA00000201A
:1011DC0080B400AF00BFBD4680BC704780B483B004
:1011EC0000AF786039603B68094A82FB03129210A9
:1011FC00DB17D21A07497B6841F82320064A7B6823
:10120C00002142F8231000BF0C37BD4680BC70474C
:10121C0067666666280000209400002080B483B0C6
:10122C0000AF7860064A7B6852F82330012B01D15D
:10123C00012300E0002318460C37BD4680BC7047E4
:10124C009400002080B483B000AF0023FB711BE03E
:10125C00FB79124A52F82330002B12DDFB790F4A2E
:10126C0052F82320013A0D4941F82320FB790B4A0F
:10127C0052F82330002B04D1FB79094A012142F8A2
:10128C002310FB790133FB71FB79022BE0D900BFF2
:10129C0000BF0C37BD4680BC704700BF2800002043
:1012AC009400002080B582B000AF7860FFF7CAFFD1
:1012BC00FFF70CFB00BF0837BD4680BDFFF788FF6A
:1012CC000B480C490C4A002302E0D458C450043398
:1012DC00C4188C42F9D3094A094C002301E013606D
:1012EC000432A242FBD301F0F9FAFFF7E3FD704799
:1012FC00000000203C000020942900083C00002045
:10130C00EC000020FEE7000080B500AF084B1B6826
:10131C00074A43F010031360032000F023F90F2059
:10132C0000F008F8FFF7CCFE0023184680BD00BF84
:10133C000020024080B582B000AF7860124B1A6872
:10134C00124B1B7819464FF47A73B3FBF1F3B2FBD3
:10135C00F3F3184600F03BF90346002B01D00123B0
:10136C000EE07B680F2B0AD8002279684FF0FF3013
:10137C0000F003F9064A7B681360002300E00123A8
:10138C0018460837BD4680BD2400002038000020D8
:10139C003400002080B400AF054B1B781A46054B77
:1013AC001B681344034A136000BFBD4680BC7047E2
:1013BC0038000020E800002080B400AF024B1B680E
:1013CC001846BD4680BC7047E800002080B485B04C
:1013DC0000AF78607B6803F00703FB600C4BDB68A5
:1013EC00BB60BA684FF6FF031340BB60FB681A0280
:1013FC00BB68134343F0BF6343F40033BB60044A40
:10140C00BB68D36000BF1437BD4680BC704700BFBB
:10141C0000ED00E080B400AF044BDB681B0A03F066
:10142C0007031846BD4680BC704700BF00ED00E0C6
:10143C0080B483B000AF0346FB7197F90730002BE3
:10144C000BDBFB7903F01F02064997F907305B09A8
:10145C00012000FA02F241F8232000BF0C37BD46F0
:10146C0080BC704700E100E080B483B000AF03465D
:10147C003960FB7197F90730002B0ADB3B68DAB255
:10148C000C4997F907301201D2B20B4483F80023B0
:10149C000AE03B68DAB20849FB7903F00F03043B1E
:1014AC001201D2B20B441A7600BF0C37BD4680BC79
:1014BC00704700BF00E100E000ED00E080B489B0AF
:1014CC0000AFF860B9607A60FB6803F00703FB615A
:1014DC00FB69C3F10703042B28BF0423BB61FB6921
:1014EC000433062B02D9FB69033B00E000237B612C
:1014FC004FF0FF32BB6902FA03F3DA43BB681A40C0
:10150C007B699A404FF0FF317B6901FA03F3D943B1
:10151C007B680B40134318462437BD4680BC70478C
:10152C0080B582B000AF78607B68013BB3F1807FFF
:10153C0001D301230FE00A4A7B68013B53600F2162
:10154C004FF0FF30FFF790FF054B00229A60044BE1
:10155C0007221A60002318460837BD4680BD00BF1D
:10156C0010E000E080B582B000AF78607868FFF7DB
:10157C002DFF00BF0837BD4680BD80B586B000AFDB
:10158C000346B9607A60FB7300237B61FFF742FF6F
:10159C0078617A68B9687869FFF790FF024697F925
:1015AC000F3011461846FFF75FFF00BF1837BD46D6
:1015BC0080BD80B582B000AF0346FB7197F9073050
:1015CC001846FFF735FF00BF0837BD4680BD80B514
:1015DC0082B000AF78607868FFF7A2FF0346184628
:1015EC000837BD4680BD000080B48BB000AF78607A
:1015FC00396000237B6200233B6248E101227B6A55
:10160C0002FA03F3FB613B681B68FA691340BB6188
:10161C00BA69FB699A4240F037813B685B68A34A20
:10162C0093425ED0A14A934275D8A14A934258D0B6
:10163C009F4A93426FD89F4A934252D09D4A9342FD
:10164C0069D89D4A93424CD09B4A934263D89B4A9B
:10165C00934246D0994A93425DD8122B2AD8122B2A
:10166C0059D801A252F823F0EF160008C916000849
:10167C00DB1600081D1700082317000823170008A5
:10168C002317000823170008231700082317000846
:10169C002317000823170008231700082317000836
:1016AC00231700082317000823170008D116000879
:1016BC00E5160008824A934213D02CE03B68DB68A5
:1016CC003B6229E03B68DB6804333B6224E03B6807
:1016DC00DB6808333B621FE03B68DB680C333B6222
:1016EC001AE03B689B68002B02D104233B6213E099
:1016FC003B689B68012B05D108233B627B68FA6928
:10170C001A6109E008233B627B68FA695A6103E0BD
:10171C0000233B6200E000BFBB69FF2B01D87B6854
:10172C0001E07B6804337B61BB69FF2B02D87B6AC9
:10173C009B0002E07B6A083B9B003B617B691A685B
:10174C000F213B6901FA03F3DB431A40396A3B6909
:10175C0001FA03F31A437B691A603B685B6803F078
:10176C008053002B00F09080564B9B69554A43F0F8
:10177C0001039361534B9B6903F00103BB60BB688E
:10178C00514A7B6A9B08023352F82330FB607B6A18
:10179C0003F003039B000F2202FA03F3DB43FA6806
:1017AC001340FB607B68494A93420DD07B68484AE2
:1017BC00934207D07B68474A934201D1022304E04D
:1017CC00032302E0012300E000237A6A02F0030203
:1017DC0092009340FA681343FB603B497B6A9B0879
:1017EC000233FA6841F823203B685B6803F48013EA
:1017FC00002B06D0384B9A683749BB6913438B6072
:10180C0006E0354B9A68BB69DB43334913408B6068
:10181C003B685B6803F40013002B06D02E4BDA6890
:10182C002D49BB691343CB6006E02B4BDA68BB69CF
:10183C00DB4329491340CB603B685B6803F40033FE
:10184C00002B06D0244B5A682349BB6913434B60C9
:10185C0006E0214B5A68BB69DB431F4913404B60C0
:10186C003B685B6803F48033002B06D01A4B1A6874
:10187C001949BB6913430B6006E0174B1A68BB6927
:10188C00DB43154913400B607B6A01337B623B6879
:10189C001A687B6A22FA03F3002B7FF4AFAE00BF09
:1018AC0000BF2C37BD4680BC704700BF0000321013
:1018BC000000311000002210000021100000121056
:1018CC00000011100010024000000140000801400F
:1018DC00000C0140001001400004014080B485B0B0
:1018EC0000AF78600B467B807B689A687B881340DE
:1018FC00002B02D00123FB7301E00023FB73FB7B65
:10190C0018461437BD4680BC704780B483B000AF16
:10191C0078600B467B8013467B707B78002B03D062
:10192C007A887B681A6103E07B881A047B681A61E9
:10193C0000BF0C37BD4680BC704780B485B000AF8B
:10194C0078600B467B807B68DB68FB607A88FB6881
:10195C0013401A04FB68D9437B880B401A437B68FD
:10196C001A6100BF1437BD4680BC704780B586B085
:10197C0000AF78607B68002B01D101236CE27B689F
:10198C001B6803F00103002B00F08780924B5B680F
:10199C0003F00C03042B0CD08F4B5B6803F00C038F
:1019AC00082B12D18C4B5B6803F48033B3F5803F6A
:1019BC000BD1894B1B6803F40033002B6CD07B6874
:1019CC005B68002B68D1012346E27B685B68B3F54A
:1019DC00803F06D1804B1B687F4A43F480331360F1
:1019EC002EE07B685B68002B0CD17B4B1B687A4A22
:1019FC0023F480331360784B1B68774A23F48023DD
:101A0C0013601DE07B685B68B3F5A02F0CD1724BA3
:101A1C001B68714A43F4802313606F4B1B686E4A3A
:101A2C0043F4803313600BE06B4B1B686A4A23F45E
:101A3C0080331360684B1B68674A23F48023136060
:101A4C007B685B68002B13D0FFF7B6FC386108E0AD
:101A5C00FFF7B2FC02463B69D31A642B01D903236E
:101A6C00FAE15D4B1B6803F40033002BF0D014E05B
:101A7C00FFF7A2FC386108E0FFF79EFC02463B69C9
:101A8C00D31A642B01D90323E6E1534B1B6803F4EF
:101A9C000033002BF0D100E000BF7B681B6803F023
:101AAC000203002B63D04C4B5B6803F00C03002B40
:101ABC000BD0494B5B6803F00C03082B1CD1464B35
:101ACC005B6803F48033002B16D1434B1B6803F087
:101ADC000203002B05D07B681B69012B01D001236D
:101AEC00BAE13D4B1B6823F0F8027B685B69DB00B5
:101AFC00394913430B603AE07B681B69002B20D0FB
:101B0C00364B01221A60FFF757FC386108E0FFF7EB
:101B1C0053FC02463B69D31A022B01D903239BE1E8
:101B2C002D4B1B6803F00203002BF0D02A4B1B68D3
:101B3C0023F0F8027B685B69DB00274913430B60D9
:101B4C0015E0264B00221A60FFF736FC386108E0DE
:101B5C00FFF732FC02463B69D31A022B01D903234F
:101B6C007AE11D4B1B6803F00203002BF0D17B685C
:101B7C001B6803F00803002B3AD07B689B69002B91
:101B8C0019D0174B01221A60FFF716FC386108E0D8
:101B9C00FFF712FC02463B69D31A022B01D903232F
:101BAC005AE10D4B5B6A03F00203002BF0D00120CD
:101BBC0000F09AFA1CE00A4B00221A60FFF7FCFBBB
:101BCC0038610FE0FFF7F8FB02463B69D31A022B92
:101BDC0008D9032340E100BF00100240000042423C
:101BEC00800442429E4B5B6A03F00203002BE9D156
:101BFC007B681B6803F00403002B00F0A680002315
:101C0C00FB75974BDB6903F08053002B0DD1944B84
:101C1C00DB69934A43F08053D361914BDB6903F04A
:101C2C008053BB60BB680123FB758E4B1B6803F4B0
:101C3C008073002B18D18B4B1B688A4A43F480733A
:101C4C001360FFF7B9FB386108E0FFF7B5FB0246FC
:101C5C003B69D31A642B01D90323FDE0814B1B682C
:101C6C0003F48073002BF0D07B68DB68012B06D16A
:101C7C007B4B1B6A7A4A43F0010313622DE07B68AD
:101C8C00DB68002B0CD1764B1B6A754A23F00103E1
:101C9C001362734B1B6A724A23F0040313621CE039
:101CAC007B68DB68052B0CD16D4B1B6A6C4A43F0CF
:101CBC00040313626A4B1B6A694A43F00103136203
:101CCC000BE0674B1B6A664A23F001031362644BFB
:101CDC001B6A634A23F0040313627B68DB68002BE6
:101CEC0015D0FFF769FB38610AE0FFF765FB024688
:101CFC003B69D31A41F28832934201D90323ABE0FA
:101D0C00574B1B6A03F00203002BEED014E0FFF7D5
:101D1C0053FB38610AE0FFF74FFB02463B69D31ACD
:101D2C0041F28832934201D9032395E04C4B1B6A54
:101D3C0003F00203002BEED1FB7D012B05D1484BA8
:101D4C00DB69474A23F08053D3617B68DB69002B46
:101D5C0000F08180424B5B6803F00C03082B61D0D0
:101D6C007B68DB69022B46D13F4B00221A60FFF7E0
:101D7C0023FB386108E0FFF71FFB02463B69D31ACF
:101D8C00022B01D9032367E0354B1B6803F000736A
:101D9C00002BF0D17B681B6AB3F5803F08D1304B28
:101DAC005B6823F400327B689B682D4913434B60BE
:101DBC002B4B5B6823F474127B68196A7B685B6A33
:101DCC000B43274913434B60274B01221A60FFF743
:101DDC00F3FA386108E0FFF7EFFA02463B69D31AD1
:101DEC00022B01D9032337E01D4B1B6803F0007352
:101DFC00002BF0D02FE01C4B00221A60FFF7DCFA0E
:101E0C00386108E0FFF7D8FA02463B69D31A022B77
:101E1C0001D9032320E0124B1B6803F00073002B45
:101E2C00F0D118E07B68DB69012B01D1012313E0B1
:101E3C000B4B5B68FB60FB6803F480327B681B6AAE
:101E4C009A4206D1FB6803F470127B685B6A9A4273
:101E5C0001D0012300E0002318461837BD4680BD91
:101E6C0000100240007000406000424280B584B017
:101E7C0000AF786039607B68002B01D10123D0E082
:101E8C006A4B1B6803F007033A689A4210D9674BF8
:101E9C001B6823F0070265493B6813430B60634BD7
:101EAC001B6803F007033A689A4201D00123B8E09B
:101EBC007B681B6803F00203002B20D07B681B6837
:101ECC0003F00403002B05D0594B5B68584A43F4CC
:101EDC00E06353607B681B6803F00803002B05D09C
:101EEC00534B5B68524A43F460535360504B5B68EE
:101EFC0023F0F0027B689B684D4913434B607B6871
:101F0C001B6803F00103002B40D07B685B68012B3E
:101F1C0007D1474B1B6803F40033002B15D1012369
:101F2C007FE07B685B68022B07D1414B1B6803F099
:101F3C000073002B09D1012373E03D4B1B6803F0A8
:101F4C000203002B01D101236BE0394B5B6823F0BA
:101F5C0003027B685B68364913434B60FFF72CFA2E
:101F6C00F8600AE0FFF728FA0246FB68D31A41F240
:101F7C008832934201D9032353E02D4B5B6803F065
:101F8C000C027B685B689B009A42EBD1274B1B6869
:101F9C0003F007033A689A4210D2244B1B6823F0D3
:101FAC00070222493B6813430B60204B1B6803F06C
:101FBC0007033A689A4201D0012332E07B681B6820
:101FCC0003F00403002B08D0194B5B6823F4E06288
:101FDC007B68DB68164913434B607B681B6803F016
:101FEC000803002B09D0124B5B6823F460527B680A
:101FFC001B69DB000E4913434B6000F021F80246CD
:10200C000B4B5B681B0903F00F030A49CB5C22FAEC
:10201C0003F3094A1360094B1B681846FFF78AF94A
:10202C00002318461037BD4680BD00BF002002407B
:10203C000010024068290008240000203400002011
:10204C0080B487B000AF0023FB600023BB6000238B
:10205C007B6100237B6000233B611E4B5B68FB6054
:10206C00FB6803F00C03042B02D0082B03D027E0F1
:10207C00194B3B6127E0FB689B0C03F00F03174ADD
:10208C00D35C7B60FB6803F48033002B10D0114BC6
:10209C005B685B0C03F00103114AD35CBB607B688B
:1020AC000D4A02FB03F2BB68B2FBF3F37B6104E065
:1020BC007B680C4A02FB03F37B617B693B6102E0AA
:1020CC00054B3B6100BF3B6918461C37BD4680BCC5
:1020DC00704700BF0010024000127A0078290008F7
:1020EC008829000800093D0080B485B000AF7860F5
:1020FC000A4B1B680A4AA2FB03235B0A7A6802FBA1
:10210C0003F3FB6000BFFB685A1EFA60002BF9D189
:10211C0000BF00BF1437BD4680BC704724000020B0
:10212C00D34D621080B582B000AF78607B68002B15
:10213C0001D1012341E07B6893F83D30DBB2002BE9
:10214C0006D17B68002283F83C207868FEF7EAFF12
:10215C007B68022283F83D207B681A687B68043315
:10216C001946104600F056FA7B68012283F8462087
:10217C007B68012283F83E207B68012283F83F2094
:10218C007B68012283F840207B68012283F8412080
:10219C007B68012283F842207B68012283F843206C
:1021AC007B68012283F844207B68012283F8452058
:1021BC007B68012283F83D20002318460837BD4672
:1021CC0080BD000080B485B000AF78607B6893F868
:1021DC003D30DBB2012B01D0012335E07B680222BC
:1021EC0083F83D207B681B68DA687B681B6842F0CB
:1021FC000102DA607B681B68164A934209D07B683F
:10220C001B68B3F1804F04D07B681B68124A934261
:10221C0011D17B681B689B6803F00703FB60FB68AC
:10222C00062B10D07B681B681A687B681B6842F011
:10223C0001021A6007E07B681B681A687B681B68E0
:10224C0042F001021A60002318461437BD4680BCC8
:10225C00704700BF002C01400004004080B584B0E2
:10226C0000AF78607B681B68DB68FB607B681B6871
:10227C001B69BB60BB6803F00203002B20D0FB681A
:10228C0003F00203002B1BD07B681B686FF002026B
:10229C001A617B6801221A777B681B689B6903F0C3
:1022AC000303002B03D0786800F098F905E07868F8
:1022BC0000F08BF9786800F09AF97B6800221A77A5
:1022CC00BB6803F00403002B20D0FB6803F004036D
:1022DC00002B1BD07B681B686FF004021A617B68B3
:1022EC0002221A777B681B689B6903F44073002BEE
:1022FC0003D0786800F072F905E0786800F065F9B1
:10230C00786800F074F97B6800221A77BB6803F0D8
:10231C000803002B20D0FB6803F00803002B1BD014
:10232C007B681B686FF008021A617B6804221A77BD
:10233C007B681B68DB6903F00303002B03D0786810
:10234C0000F04CF905E0786800F03FF9786800F08F
:10235C004EF97B6800221A77BB6803F01003002B40
:10236C0020D0FB6803F01003002B1BD07B681B688C
:10237C006FF010021A617B6808221A777B681B6861
:10238C00DB6903F44073002B03D0786800F026F966
:10239C0005E0786800F019F9786800F028F97B6896
:1023AC0000221A77BB6803F00103002B0CD0FB68EA
:1023BC0003F00103002B07D07B681B686FF0010250
:1023CC001A617868FEF76EFFBB6803F08003002B80
:1023DC000CD0FB6803F08003002B07D07B681B68D4
:1023EC006FF080021A61786800F06FFABB6803F036
:1023FC004003002B0CD0FB6803F04003002B07D0EC
:10240C007B681B686FF040021A61786800F0F8F87E
:10241C00BB6803F02003002B0CD0FB6803F02003F7
:10242C00002B07D07B681B686FF020021A6178685C
:10243C0000F042FA00BF1037BD4680BD80B584B0B5
:10244C0000AF786039600023FB737B6893F83C30F5
:10245C00012B01D10223B4E07B68012283F83C20DC
:10246C007B68022283F83D207B681B689B68BB60FD
:10247C00BB6823F07703BB60BB6823F47F43BB606E
:10248C007B681B68BA689A603B681B68B3F5005F91
:10249C003ED0B3F5005F00F28780B3F5805F00F0AB
:1024AC008680B3F5805F7FD8702B1AD0702B7BD8C9
:1024BC00602B50D0602B77D8502B3CD0502B73D83E
:1024CC00402B58D0402B6FD8302B64D0302B6BD88E
:1024DC00202B60D0202B67D8002B5CD0102B5AD02F
:1024EC0062E07B6818683B6899683B685A683B688F
:1024FC00DB6800F06AF97B681B689B68BB60BB6893
:10250C0043F07703BB607B681B68BA689A604FE046
:10251C007B6818683B6899683B685A683B68DB685D
:10252C0000F053F97B681B689A687B681B6842F45F
:10253C0080429A603CE07B6818683B6859683B684D
:10254C00DB681A4600F0CAF87B681B6850211846F5
:10255C0000F021F92CE07B6818683B6859683B68EF
:10256C00DB681A4600F0E8F87B681B6860211846A7
:10257C0000F011F91CE07B6818683B6859683B68EF
:10258C00DB681A4600F0AAF87B681B6840211846E5
:10259C0000F001F90CE07B681A683B681B6819466F
:1025AC00104600F0F8F803E00123FB7300E000BFD5
:1025BC007B68012283F83D207B68002283F83C2055
:1025CC00FB7B18461037BD4680BD80B483B000AF8E
:1025DC00786000BF0C37BD4680BC704780B483B0B8
:1025EC0000AF786000BF0C37BD4680BC704780B42C
:1025FC0083B000AF786000BF0C37BD4680BC70471D
:10260C0080B483B000AF786000BF0C37BD4680BC8F
:10261C007047000080B485B000AF786039607B688B
:10262C001B68FB607B682B4A934207D07B68B3F135
:10263C00804F03D07B68284A934208D1FB6823F073
:10264C007003FB603B685B68FA681343FB607B6854
:10265C00204A934207D07B68B3F1804F03D07B684C
:10266C001D4A934208D1FB6823F44073FB603B681E
:10267C00DB68FA681343FB60FB6823F080023B685D
:10268C005B691343FB607B68FA681A603B689A6865
:10269C007B68DA623B681A687B689A627B680D4AD1
:1026AC00934203D13B681A697B681A637B680122E9
:1026BC005A617B681B6903F00103002B05D07B6812
:1026CC001B6923F001027B681A6100BF1437BD46F9
:1026DC0080BC7047002C01400004004080B487B0DF
:1026EC0000AFF860B9607A60FB681B6A7B61FB68BD
:1026FC001B6A23F00102FB681A62FB689B693B6151
:10270C003B6923F0F0033B617B681B013A6913437F
:10271C003B617B6923F00A037B617A69BB681343D5
:10272C007B61FB683A699A61FB687A691A6200BF3F
:10273C001C37BD4680BC704780B487B000AFF860D2
:10274C00B9607A60FB681B6A7B61FB681B6A23F0CB
:10275C001002FB681A62FB689B693B613B6923F4BE
:10276C0070433B617B681B033A6913433B617B6994
:10277C0023F0A0037B61BB681B017A6913437B6167
:10278C00FB683A699A61FB687A691A6200BF1C3768
:10279C00BD4680BC704780B485B000AF78603960AE
:1027AC007B689B68FB60FB6823F07003FB603A68F6
:1027BC00FB68134343F00703FB607B68FA689A607D
:1027CC0000BF1437BD4680BC704780B487B000AFE3
:1027DC00F860B9607A603B60FB689B687B617B69E1
:1027EC0023F47F437B613B681A027B681A43BB6806
:1027FC0013437A6913437B61FB687A699A6000BF63
:10280C001C37BD4680BC704780B485B000AF786083
:10281C0039607B6893F83C30012B01D1022341E0F5
:10282C007B68012283F83C207B68022283F83D20E0
:10283C007B681B685B68FB607B681B689B68BB6084
:10284C00FB6823F07003FB603B681B68FA6813435A
:10285C00FB607B681B68FA685A607B681B68144ACB
:10286C00934209D07B681B68B3F1804F04D07B681E
:10287C001B68104A93420CD1BB6823F08003BB60E9
:10288C003B685B68BA681343BB607B681B68BA68BB
:10289C009A607B68012283F83D207B68002283F8D4
:1028AC003C20002318461437BD4680BC704700BF3F
:1028BC00002C01400004004080B483B000AF78606D
:1028CC0000BF0C37BD4680BC704780B483B000AFEE
:1028DC00786000BF0C37BD4680BC704770B50026D1
:1028EC000C4D0D4C641BA410A64209D100F022F82B
:1028FC0000260A4D0A4C641BA410A64205D170BDDB
:10290C0055F8043B98470136EEE755F8043B9847D9
:10291C000136F2E78C2900088C2900088C29000864
:10292C009029000803460244934200D1704703F8F3
:10293C00011BF9E7F8B500BFF8BC08BC9E46704710
:0C294C00F8B500BFF8BC08BC9E46704700
:10295800407924301912027800100846064E4800C3
:102968000000000000000000010203040607080937
:1029780002030405060708090A0B0C0D0E0F1010B8
:042988000102000048
:04298C00310100080D
:042990000D0100082D
:10299400070000000B00000001000000050000001B
:1029A4000200000003000000010101000101010018
:1029B4000101010000127A000A000000000000007A
:0C29C400000000001000000001000000F6
:04000005080012C914
:00000001FF
