:020000040800F2
:100000000028002089160008AD150008B315000867
:10001000B9150008BF150008C5150008000000004C
:10002000000000000000000000000000CB150008E8
:10003000D715000800000000E3150008EF150008C0
:10004000D1160008D1160008D1160008D1160008F4
:10005000D1160008D1160008D1160008D1160008E4
:10006000D1160008D1160008D1160008D1160008D4
:10007000D1160008D1160008D1160008D1160008C4
:10008000D1160008D1160008D1160008D1160008B4
:10009000D1160008D1160008D1160008D1160008A4
:1000A000D1160008D1160008D1160008D116000894
:1000B000FD150008D116000800000000D116000848
:1000C000D11600080000000000000000D116000852
:1000D00000000000D1160008D11600080000000042
:1000E000D1160008D1160008D11600080000000043
:1000F0000000000000000000000000000000000000
:0C01000000000000000000005FF808F1A3
:10010C0010B5054C237833B9044B13B10448AFF345
:10011C0000800123237010BD9C0000200000000013
:10012C00B42E000808B5034B1BB103490348AFF3C9
:10013C00008008BD00000000A0000020B42E0008C4
:10014C0080B500AF424B1B68012B73D1414B1B6830
:10015C00042B6FD1404B1B685A1E3F490A6018464E
:10016C0000F00CFE3D4B1B685A1E3C490A601846B9
:10017C0000F04CFE3A4B1B68073B032B5CD801A2EA
:10018C0052F823F0A1010008C5010008F101000894
:10019C0015020008032000F04BFC052000F076FC53
:1001AC002E4B1B68002B49D12E4B1B682B4A13601E
:1001BC002B4B08221A6041E0032000F039FC06208A
:1001CC0000F064FC254B1B68002B39D1264B1B68B7
:1001DC00214A1360254B1B68204A1360204B0922CF
:1001EC001A602DE0052000F023FC032000F04EFCEB
:1001FC00194B1B68002B25D11A4B1B68164A136030
:10020C00174B0A221A601DE0062000F011FC032097
:10021C0000F03CFC104B1B68002B15D1134B1B68DA
:10022C000D4A1360104B1B680C4A13600C4B0722D1
:10023C001A6009E000BF08E000BF06E000BF04E060
:10024C0000BF02E000BF00E000BF00BF80BD00BFE8
:10025C00B8000020BC000020180000201C0000206A
:10026C000000002010000020140000200C000020D2
:10027C0080B400AF184B1B68022B07D0164B1B68C1
:10028C00032B03D0144B1B68042B1FD1134B1B687F
:10029C000B3B032B1CD801A252F823F0DD02000803
:1002AC00B9020008DD020008DD0200080C4B1B68D7
:1002BC0001330B4A13600A4B1B68632B02DD084B9E
:1002CC0001221A60054B0B221A6002E000BF00E00D
:1002DC0000BFBD4680BC7047B80000200400002061
:1002EC000800002080B500AF0C4B1B6801330B4A93
:1002FC0013600A4B1B68632B02DD084B01221A604A
:10030C00074B1B680D2B04D100226421054800F01B
:10031C0007FF034B0B221A6000BF80BD08000020B2
:10032C0004000020F102000880B400AF034B0B2244
:10033C001A6000BFBD4680BC704700BF040000209F
:10034C0080B500AF1E4B1B68062B23D801A252F8B8
:10035C0023F000BF7D030008A103000883030008FD
:10036C00890300088F030008950300089B0300080D
:10037C0000F02AF80FE000F035F80CE000F04CF833
:10038C0009E000F063F806E000F07AF803E000F012
:10039C007EF800E000BF0A4B1B68002B0ED0094B07
:1003AC001B68042B02D1074B00221A60054B1B68FB
:1003BC005A1C04490A60184600F036FC00BF80BD88
:1003CC00B8000020BC00002080B500AF002000F079
:1003DC002FFB002000F05AFB4FF0FF3000F024FC04
:1003EC0000BF80BD80B500AF094B1B680E2B04D13C
:1003FC004FF0FF3000F00AFD04E0064B1B68184676
:10040C0000F004FD032000F06FFB00BF80BD00BFB7
:10041C00040000200800002080B500AF094B1B68C9
:10042C000E2B04D14FF0FF3000F0F0FC04E0064B33
:10043C001B68184600F0EAFC062000F055FB00BFD4
:10044C0080BD00BF040000200800002080B500AF74
:10045C00094B1B680E2B04D14FF0FF3000F0D6FC7B
:10046C0004E0064B1B68184600F0D0FC052000F099
:10047C003BFB00BF80BD00BF040000200800002033
:10048C0080B500AF052000F02FFB00BF80BD80B50C
:10049C0000AF022000F028FB00BF80BD80B582B009
:1004AC0000AF00237B6053E02D4A7B6813441B781C
:1004BC00022B36D0022B48DC002B02D0012B11D0A2
:1004CC0043E07B68DBB2184600F07EFA0346002B53
:1004DC0038D0234A7B68134401221A70786800F0E4
:1004EC00E5F82FE07B68DBB2184600F06DFA0346A6
:1004FC00002B05D11A4A7B68134400221A7023E0A2
:10050C007B68DBB2184600F079FA0346002B1BD04F
:10051C00134A7B68134402221A70786800F0A4F91D
:10052C0012E07B68DBB2184600F04EFA0346002B53
:10053C0004D10B4A7B68134400221A70786800F0CF
:10054C00A7F902E000BF00E000BF7B6801337B60CD
:10055C007B68022BA8DD00BF00BF0837BD4680BDFD
:10056C00CC00002080B500AF434B00221A6007205E
:10057C0000F05EFA072000F089FA404B1B68013B43
:10058C00052B76D801A252F823F000BFB105000864
:10059C000B0600081F060008330600086506000855
:1005AC0047060008364B1B68002B13D0354B1B68D5
:1005BC00002B0FD0344B1B68002B0BD0304B1B681F
:1005CC00324A13602F4B1B68314A13602E4B1B6849
:1005DC00304A13602A4B00221A602A4B00221A6000
:1005EC00294B00221A60294B1B682B4A1360284B9D
:1005FC001B682A4A13602A4B07221A603AE0294BDF
:10060C000B221A60022000F0B9FB274B01221A6062
:10061C0030E0244B0B221A60032000F0AFFB224B7E
:10062C0001221A6026E01F4B0B221A60042000F0F6
:10063C00A5FB1D4B01221A601CE0062000F0F8F906
:10064C00062000F023FA6FF0010000F097FB6FF02A
:10065C00020000F0DBFB0DE06FF0010000F08EFB00
:10066C00074B1A68084B1B68D31A184600F0CEFBD0
:10067C0000E000BF80BD00BFBC000020B80000201F
:10068C00C0000020C4000020C80000200C00002086
:10069C001400002010000020180000201C00002076
:1006AC0000000020040000200800002080B582B06B
:1006BC0000AF78607B68022B50D07B68022B00F374
:1006CC00C0807B68002B03D07B68012B36D0B8E050
:1006DC005E4B1B68062B2DD801A252F823F000BFED
:1006EC00090700081107000819070008210700086E
:1006FC00290700083107000839070008534B01226D
:10070C001A6018E0514B02221A6014E04F4B03227E
:10071C001A6010E04D4B04221A600CE04B4B012286
:10072C001A6008E0494B02221A6004E0474B02228F
:10073C001A6000E000BFFFF715FF82E0434B1B6817
:10074C00022B07D0414B1B68042B03D03F4B1B687B
:10075C00032B73D13E4B0C221A606FE03B4B1B6892
:10076C00023B042B6CD801A252F823F08D07000831
:10077C00A9070008E50700082F0800084D08000825
:10078C0000224FF4FA61334800F0CAFC324B1B686C
:10079C00324A13602E4B0E221A6052E02E4B1A680E
:1007AC002E4B1B689A4203DB2C4B1B68002B0DD184
:1007BC0000224FF4FA61274800F0B2FC264B1B686C
:1007CC00274A1360224B0E221A603AE01F4B062276
:1007DC001A60FFF7C7FE34E0204B1A68204B1B68E9
:1007EC00D21A1D4B1B689A4207D01C4B1B68002B5E
:1007FC0003D01B4B1B68002B0DD100224FF4FA6168
:10080C00144800F08DFC144B1B68164A1360104BF7
:10081C000E221A6015E00D4B05221A60FFF7A2FE9E
:10082C000FE00E4B1A680E4B1B68D31A0D4A13605F
:10083C00064B01221A60FFF795FE02E000BF00E0B4
:10084C0000BF00BF0837BD4680BD00BFB800002008
:10085C00040000203503000808000020C000002020
:10086C00C8000020C400002080B582B000AF7860C2
:10087C007B68012B05D100226421044800F050FC58
:10088C0000E000BF0837BD4680BD00BFF102000884
:10089C0080B483B000AF78607B68012B03D1044B2C
:1008AC000D221A6000E000BF0C37BD4680BC7047BB
:1008BC000400002080B582B000AF00237B606FE0A5
:1008CC007B68022B17D07B68022B1BDC7B68002B10
:1008DC0003D07B68012B07D014E00421344801F0CD
:1008EC00DDF90346FB7010E00821314801F0D6F920
:1008FC000346FB7009E010212D4801F0CFF90346A7
:10090C00FB7002E00123FB7000BF2A4A7B68134492
:10091C001978294A7B6813440A461A70254A7B6861
:10092C001344FA781A70234A7B6813441A782249C4
:10093C007B680B441B789A4208D11E4A7B6813448F
:10094C0019781E4A7B6813440A461A701B4A7B6846
:10095C0013441B78002B16D1194A7B6832F81330DC
:10096C00632B0AD8164A7B6832F81330013399B2DC
:10097C00134A7B6822F813100FE0124A7B68134469
:10098C0001221A7009E00E4A7B68002122F813102C
:10099C000C4A7B68134400221A707B6801337B601D
:1009AC007B68022B8CDD00BF00BF0837BD4680BDC5
:1009BC000008014024000020280000202000002016
:1009CC00D4000020D000002080B483B000AF0346D8
:1009DC00FB71FB79022B01D9002307E0FB79064A56
:1009EC00D35C002B0CBF01230023DBB218460C3761
:1009FC00BD4680BC704700BF2000002080B483B08F
:100A0C0000AF0346FB71FB79022B01D9FF2307E0F2
:100A1C00FB79064AD35C012B0CBF01230023DBB20C
:100A2C0018460C37BD4680BC704700BFD000002074
:100A3C0080B582B000AF0346FB71FB799B08DBB23B
:100A4C0003F00103DBB21A464FF480610E4801F04B
:100A5C003CF9FB795B08DBB203F00103DBB21A460D
:100A6C004FF40061084801F030F9FB7903F0010301
:100A7C00DBB21A464FF48051034801F026F900BF4F
:100A8C000837BD4680BD00BF0008014080B582B06C
:100A9C0000AF0346FB71FB799B08DBB203F001034B
:100AAC00DBB21A464FF400510E4801F00EF9FB79F7
:100ABC005B08DBB203F00103DBB21A464FF4804152
:100ACC00084801F002F9FB7903F00103DBB21A4686
:100ADC004FF40041034801F0F8F800BF0837BD4659
:100AEC0080BD00BF0008014080B582B000AF034656
:100AFC00FB71FB79072B03D120211C4801F0FDF879
:100B0C00FB799B08DBB203F00103002B09D14FF4F6
:100B1C008061164801F0F1F84FF40051134801F0D0
:100B2C00ECF8FB795B08DBB203F00103002B09D175
:100B3C004FF400610D4801F0E0F84FF480410B4890
:100B4C0001F0DBF8FB7903F00103002B09D14FF422
:100B5C008051064801F0D1F84FF40041034801F0F0
:100B6C00CCF800BF0837BD4680BD00BF000801406F
:100B7C0080B584B000AF7860294A7B6813441B7839
:100B8C00FB73FB7B03F00103DBB21A460121254802
:100B9C0001F09BF8FB7B5B08DBB203F00103DBB2DB
:100BAC001A4602211F4801F090F8FB7B9B08DBB230
:100BBC0003F00103DBB21A4604211A4801F085F850
:100BCC00FB7BDB08DBB203F00103DBB21A46082126
:100BDC00144801F07AF8FB7B1B09DBB203F001032C
:100BEC00DBB21A4610210F4801F06FF8FB7B5B0952
:100BFC00DBB203F00103DBB21A462021094801F0F5
:100C0C0064F8FB7B9B09DBB203F00103DBB21A46F1
:100C1C004021044801F059F800BF1037BD4680BD93
:100C2C00CC2E0008000C014080B582B000AF78607B
:100C3C007B680133042B00F2978001A252F823F059
:100C4C00610C0008950C0008CD0C0008050D00087F
:100C5C003D0D000800224021464801F036F80022E4
:100C6C008021444801F031F800224FF48071414852
:100C7C0001F02BF800224FF400713E4801F025F8EA
:100C8C000820FFF775FF70E000224021394801F081
:100C9C001CF801228021374801F017F801224FF48B
:100CAC008071344801F011F801224FF40071314881
:100CBC0001F00BF8304B1B681846FFF759FF54E056
:100CCC00012240212B4801F000F800228021294804
:100CDC0000F0FBFF01224FF48071264800F0F5FF75
:100CEC0001224FF40071234800F0EFFF224B5B68A8
:100CFC001846FFF73DFF38E0012240211D4800F067
:100D0C00E4FF012280211B4800F0DFFF00224FF49A
:100D1C008071184800F0D9FF01224FF4007115487A
:100D2C0000F0D3FF144B9B681846FFF721FF1CE023
:100D3C00012240210F4800F0C8FF012280210D48FC
:100D4C0000F0C3FF01224FF480710A4800F0BDFF90
:100D5C0000224FF40071074800F0B7FF064BDB6828
:100D6C001846FFF705FF00E000BF00BF0837BD467F
:100D7C0080BD00BF00080140DC00002080B483B0BF
:100D8C0000AF78607B68002B17DB7B681D4A82FB09
:100D9C0003129210DB17D31A1B4A13607968194B94
:100DAC0083FB01239A10CB17D21A13469B001344D2
:100DBC005B00CA1A144B5A6020E07B68B3F1FF3F0A
:100DCC0006D1114B0A221A600F4B0B225A6015E008
:100DDC007B6813F1020F06D10B4B0C221A600A4BE5
:100DEC000D225A600AE07B6813F1030F06D1064B03
:100DFC000E221A60044B0A225A6000BF0C37BD4603
:100E0C0080BC704767666666DC00002080B483B0E7
:100E1C0000AF78607B68002B17DB7B681D4A82FB78
:100E2C0003129210DB17D31A1B4A93607968194B83
:100E3C0083FB01239A10CB17D21A13469B00134441
:100E4C005B00CA1A144BDA6020E07B68B3F1FF3FF9
:100E5C0006D1114B0A229A600F4B0B22DA6015E077
:100E6C007B6813F1020F06D10B4B0C229A600A4BD4
:100E7C000D22DA600AE07B6813F1030F06D1064BF2
:100E8C000E229A60044B0A22DA6000BF0C37BD4672
:100E9C0080BC704767666666DC00002080B500AFDA
:100EAC0000F02CF900F010FC00F030F800F0B6F86F
:100EBC0000F068F80F4801F065FB0A220A210E4881
:100ECC0000F02EF90A220A210C4800F029F9FA2226
:100EDC000A210B4800F024F90A220A21094800F0E3
:100EEC001FF9FA220A21084800F01AF900F060FAFA
:100EFC00FCE700BF00010020C1080008A90400089D
:100F0C004D0100087D0200084D03000880B590B02B
:100F1C0000AF07F1180328220021184601F0F8FE53
:100F2C003B1D00221A605A609A60DA601A61022333
:100F3C00BB610123BB621023FB6200237B6307F1BF
:100F4C001803184600F0F2FE0346002B01D000F007
:100F5C00CFF80F237B600023BB600023FB600023D2
:100F6C003B6100237B613B1D0021184601F05EF9BB
:100F7C000346002B01D000F0BBF800BF4037BD4644
:100F8C0080BD000080B586B000AF07F108030022D9
:100F9C001A605A609A60DA603B4600221A605A6006
:100FAC001D4B4FF080421A601B4B41F63F725A604A
:100FBC00194B00229A60184B0922DA60164B00225A
:100FCC001A61154B00229A61134801F08BFA034603
:100FDC00002B01D000F08CF84FF48053BB6007F16C
:100FEC00080319460C4801F009FC0346002B01D0FC
:100FFC0000F07EF800233B6000237B603B461946E3
:10100C00054801F0E1FD0346002B01D000F070F81B
:10101C0000BF1837BD4680BD0001002080B586B0EA
:10102C0000AF07F1080300221A605A609A60DA6078
:10103C00274B9B69264A43F004039361244B9B691D
:10104C0003F004037B607B68214B9B69204A43F0CF
:10105C00080393611E4B9B6903F008033B603B68DC
:10106C0000224FF6E0711B4800F02FFE00227F217A
:10107C00194800F02AFE1C23BB600023FB600123EF
:10108C003B6107F108031946124800F08DFC4FF63E
:10109C00E073BB600123FB6000233B6102237B6197
:1010AC0007F1080319460B4800F07EFC7F23BB6058
:1010BC000123FB6000233B6102237B6107F10803E2
:1010CC001946054800F070FC00BF1837BD4680BDBE
:1010DC000010024000080140000C014080B582B0B5
:1010EC0000AF786000F0B4F900BF0837BD4680BD92
:1010FC0080B400AF72B600BFFEE7000080B500AF51
:10110C00042001F0F5FD03461A46044B1A60034B0C
:10111C001B6800221A6000BF80BD00BFEC000020DD
:10112C0080B58AB000AFF860B9607A602B4B1B6851
:10113C00282B01D102234CE0284B1B680133274A92
:10114C001360BB687B62002387F82330244B1B6839
:10115C001B68FB610023BB6100237B6111E0FB6911
:10116C001B685A68BB691344BB61BB69BA689A4275
:10117C000BD397F82330013387F82330FB695B6876
:10118C00FB61FB69002BEAD100E000BFFB69002B7F
:10119C0012D0BA69FB691B685B68D31A7B617B69E7
:1011AC00BA68D31A7B62FB691B685968FB691B68B8
:1011BC007A6A8A1A5A6003E0BB69BA68D31A7B62EE
:1011CC0097F823307A68796AF86800F00BF897F88A
:1011DC00233018462837BD4680BD00BFF0000020E4
:1011EC00EC00002080B588B000AFF860B9607A6080
:1011FC003B60082001F07CFD03467B617B69002B82
:10120C0058D0142001F074FD03461A467B691A600D
:10121C007B691B68002B03D1786901F071FD4AE0F2
:10122C007B691B68FA681A607B691B68BA685A602C
:10123C007B691B687A689A607B691B6800221A7349
:10124C007B691B683A681A617B6900225A603B68AB
:10125C00002B09D1194B1B681A687B695A60174B14
:10126C001B687A691A6022E0144B1B681B68FB61CF
:10127C000023BB6105E0FB695B68FB61BB69013363
:10128C00BB613B68013BBA699A4202DAFB69002BED
:10129C00F1D1FB69002B07D0FB695A687B695A6056
:1012AC00FB697A695A6002E0786901F029FD00F067
:1012BC0003F900E000BF2037BD4680BDEC000020E4
:1012CC0080B586B000AF0346FB71374B1B681B68BB
:1012DC007B610023FB60344B1B68002B04D0324B2A
:1012EC001B681B68002B01D1022358E0FB79002BF3
:1012FC0020D12D4B1B681B68FB602B4B1B68FA68BD
:10130C0052681A60FB681B68002B07D0FB681B68CF
:10131C00184601F0F5FCFB6800221A60F86801F031
:10132C00EFFC00F0C9F8214B1B68013B1F4A13600E
:10133C00012334E000233B6105E07B695B687B6142
:10134C003B6901333B617B69002B04D0FB79013B8A
:10135C003A699A42F1DB7B69002B03D07B695B68AD
:10136C00002B01D102231AE07B695B68FB60FB68F0
:10137C001B68002B01D1022311E0FB681B68184687
:10138C0001F0BEFCFB6800221A60FB685A687B699E
:10139C005A60F86801F0B4FC00F08EF8012318468E
:1013AC001837BD4680BD00BFEC000020F0000020C7
:1013BC0080B584B000AF254B1B681B68002B40D058
:1013CC00224B1B681B681B681B7B002B39D01F4BE7
:1013DC001B681B681B681A7B1C4B1B681B681B68F3
:1013EC00013AD2B21A7320E0184B1B681B68FB60E1
:1013FC00FB681B681B689847FB681B689B68002B85
:10140C0010D0FB681B681B68BB60FB681B689B6883
:10141C007B600020FFF754FF7A687968B868FFF7A3
:10142C007FFE02E00020FFF74BFF084B1B681B6898
:10143C00002B06D0054B1B681B681B685B68002BD8
:10144C00D2D000BF1037BD4680BD00BFEC000020DD
:10145C0080B400AF174B1B681B68002B25D0154BB5
:10146C001B681B681B68002B1FD0124B1B681B686A
:10147C001B685B68002B0CD10E4B1B681B681B6830
:10148C001A7B0C4B1B681B681B680132D2B21A7397
:10149C000CE0084B1B681B681B685A68054B1B68E3
:1014AC001B681B680A3A5A6000E000BFBD4680BC4E
:1014BC00704700BFEC00002080B483B000AF002365
:1014CC007B600B4B1B681B683B6008E07B685A1CFD
:1014DC007A603A68126813613B685B683B603B68F2
:1014EC00002BF3D100BF00BF0C37BD4680BC70474A
:1014FC00EC00002080B485B000AF154B9B69144AFA
:10150C0043F001039361124B9B6903F00103BB6031
:10151C00BB680F4BDB690E4A43F08053D3610C4B15
:10152C00DB6903F080537B607B680A4B5B68FB6074
:10153C00FB6823F0E063FB60FB6843F08063FB60B7
:10154C00044AFB68536000BF1437BD4680BC70472B
:10155C00001002400000014080B584B000AF7860FC
:10156C007B681B68B3F1804F13D10C4BDB690B4AC2
:10157C0043F00103D361094BDB6903F00103FB600A
:10158C00FB68002200211C2000F0D7F91C2000F081
:10159C00F0F900BF1037BD4680BD00BF00100240FF
:1015AC0080B400AFFEE780B400AFFEE780B400AFBC
:1015BC00FEE780B400AFFEE780B400AFFEE780B476
:1015CC0000AF00BFBD4680BC704780B400AF00BF09
:1015DC00BD4680BC704780B400AF00BFBD4680BC28
:1015EC00704780B500AF00F0B5F800BF80BD0000BB
:1015FC0080B500AF024801F011F800BF80BD00BFFC
:10160C000001002080B586B000AF7860144A154BFD
:10161C00D31A7B617B693B61134B1B68002B02D196
:10162C00114B124A1A60104B1A687B6813443A69C2
:10163C009A4207D201F032FB03460C221A604FF09B
:10164C00FF3309E0084B1B68FB60074B1A687B688B
:10165C001344054A1360FB6818461837BD4680BD15
:10166C000028002000040000F4000020600100208D
:10167C0080B400AF00BFBD4680BC7047FFF7F8FFD9
:10168C000B480C490C4A002302E0D458C4500433D4
:10169C00C4188C42F9D3094A094C002301E01360A9
:1016AC000432A242FBD301F0FFFAFFF7F7FB7047BD
:1016BC00000000209C000020082F00089C00002047
:1016CC005C010020FEE7000080B500AF084B1B68F2
:1016DC00074A43F010031360032000F023F90F2096
:1016EC0000F008F8FFF706FF0023184680BD00BF86
:1016FC000020024080B582B000AF7860124B1A68AF
:10170C00124B1B7819464FF47A73B3FBF1F3B2FB0F
:10171C00F3F3184600F03BF90346002B01D00123EC
:10172C000EE07B680F2B0AD8002279684FF0FF304F
:10173C0000F003F9064A7B681360002300E00123E4
:10174C0018460837BD4680BD2C0000203400002010
:10175C003000002080B400AF054B1B781A46054BB7
:10176C001B681344034A136000BFBD4680BC70471E
:10177C00340000204801002080B400AF024B1B68ED
:10178C001846BD4680BC70474801002080B485B027
:10179C0000AF78607B6803F00703FB600C4BDB68E1
:1017AC00BB60BA684FF6FF031340BB60FB681A02BC
:1017BC00BB68134343F0BF6343F40033BB60044A7C
:1017CC00BB68D36000BF1437BD4680BC704700BFF8
:1017DC0000ED00E080B400AF044BDB681B0A03F0A3
:1017EC0007031846BD4680BC704700BF00ED00E003
:1017FC0080B483B000AF0346FB7197F90730002B20
:10180C000BDBFB7903F01F02064997F907305B09E4
:10181C00012000FA02F241F8232000BF0C37BD462C
:10182C0080BC704700E100E080B483B000AF034699
:10183C003960FB7197F90730002B0ADB3B68DAB291
:10184C000C4997F907301201D2B20B4483F80023EC
:10185C000AE03B68DAB20849FB7903F00F03043B5A
:10186C001201D2B20B441A7600BF0C37BD4680BCB5
:10187C00704700BF00E100E000ED00E080B489B0EB
:10188C0000AFF860B9607A60FB6803F00703FB6196
:10189C00FB69C3F10703042B28BF0423BB61FB695D
:1018AC000433062B02D9FB69033B00E000237B6168
:1018BC004FF0FF32BB6902FA03F3DA43BB681A40FC
:1018CC007B699A404FF0FF317B6901FA03F3D943EE
:1018DC007B680B40134318462437BD4680BC7047C9
:1018EC0080B582B000AF78607B68013BB3F1807F3C
:1018FC0001D301230FE00A4A7B68013B53600F219F
:10190C004FF0FF30FFF790FF054B00229A60044B1D
:10191C0007221A60002318460837BD4680BD00BF59
:10192C0010E000E080B582B000AF78607868FFF717
:10193C002DFF00BF0837BD4680BD80B586B000AF17
:10194C000346B9607A60FB7300237B61FFF742FFAB
:10195C0078617A68B9687869FFF790FF024697F961
:10196C000F3011461846FFF75FFF00BF1837BD4612
:10197C0080BD80B582B000AF0346FB7197F907308C
:10198C001846FFF735FF00BF0837BD4680BD80B550
:10199C0082B000AF78607868FFF7A2FF0346184664
:1019AC000837BD4680BD000080B48BB000AF7860B6
:1019BC00396000237B6200233B6248E101227B6A91
:1019CC0002FA03F3FB613B681B68FA691340BB61C5
:1019DC00BA69FB699A4240F037813B685B68A34A5D
:1019EC0093425ED0A14A934275D8A14A934258D0F3
:1019FC009F4A93426FD89F4A934252D09D4A93423A
:101A0C0069D89D4A93424CD09B4A934263D89B4AD7
:101A1C00934246D0994A93425DD8122B2AD8122B66
:101A2C0059D801A252F823F0AF1A0008891A0008FD
:101A3C009B1A0008DD1A0008E31A0008E31A0008D4
:101A4C00E31A0008E31A0008E31A0008E31A000876
:101A5C00E31A0008E31A0008E31A0008E31A000866
:101A6C00E31A0008E31A0008E31A0008911A0008A8
:101A7C00A51A0008824A934213D02CE03B68DB681D
:101A8C003B6229E03B68DB6804333B6224E03B6843
:101A9C00DB6808333B621FE03B68DB680C333B625E
:101AAC001AE03B689B68002B02D104233B6213E0D5
:101ABC003B689B68012B05D108233B627B68FA6964
:101ACC001A6109E008233B627B68FA695A6103E0FA
:101ADC0000233B6200E000BFBB69FF2B01D87B6891
:101AEC0001E07B6804337B61BB69FF2B02D87B6A06
:101AFC009B0002E07B6A083B9B003B617B691A6898
:101B0C000F213B6901FA03F3DB431A40396A3B6945
:101B1C0001FA03F31A437B691A603B685B6803F0B4
:101B2C008053002B00F09080564B9B69554A43F034
:101B3C0001039361534B9B6903F00103BB60BB68CA
:101B4C00514A7B6A9B08023352F82330FB607B6A54
:101B5C0003F003039B000F2202FA03F3DB43FA6842
:101B6C001340FB607B68494A93420DD07B68484A1E
:101B7C00934207D07B68474A934201D1022304E089
:101B8C00032302E0012300E000237A6A02F003023F
:101B9C0092009340FA681343FB603B497B6A9B08B5
:101BAC000233FA6841F823203B685B6803F4801326
:101BBC00002B06D0384B9A683749BB6913438B60AE
:101BCC0006E0354B9A68BB69DB43334913408B60A5
:101BDC003B685B6803F40013002B06D02E4BDA68CD
:101BEC002D49BB691343CB6006E02B4BDA68BB690C
:101BFC00DB4329491340CB603B685B6803F400333B
:101C0C00002B06D0244B5A682349BB6913434B6005
:101C1C0006E0214B5A68BB69DB431F4913404B60FC
:101C2C003B685B6803F48033002B06D01A4B1A68B0
:101C3C001949BB6913430B6006E0174B1A68BB6963
:101C4C00DB43154913400B607B6A01337B623B68B5
:101C5C001A687B6A22FA03F3002B7FF4AFAE00BF45
:101C6C0000BF2C37BD4680BC704700BF000032104F
:101C7C000000311000002210000021100000121092
:101C8C00000011100010024000000140000801404B
:101C9C00000C0140001001400004014080B485B0EC
:101CAC0000AF78600B467B807B689A687B8813401A
:101CBC00002B02D00123FB7301E00023FB73FB7BA1
:101CCC0018461437BD4680BC704780B483B000AF53
:101CDC0078600B467B8013467B707B78002B03D09F
:101CEC007A887B681A6103E07B881A047B681A6126
:101CFC0000BF0C37BD4680BC704780B485B000AFC8
:101D0C0078600B467B807B68DB68FB607A88FB68BD
:101D1C0013401A04FB68D9437B880B401A437B6839
:101D2C001A6100BF1437BD4680BC704780B586B0C1
:101D3C0000AF78607B68002B01D101236CE27B68DB
:101D4C001B6803F00103002B00F08780924B5B684B
:101D5C0003F00C03042B0CD08F4B5B6803F00C03CB
:101D6C00082B12D18C4B5B6803F48033B3F5803FA6
:101D7C000BD1894B1B6803F40033002B6CD07B68B0
:101D8C005B68002B68D1012346E27B685B68B3F586
:101D9C00803F06D1804B1B687F4A43F4803313602D
:101DAC002EE07B685B68002B0CD17B4B1B687A4A5E
:101DBC0023F480331360784B1B68774A23F4802319
:101DCC0013601DE07B685B68B3F5A02F0CD1724BE0
:101DDC001B68714A43F4802313606F4B1B686E4A77
:101DEC0043F4803313600BE06B4B1B686A4A23F49B
:101DFC0080331360684B1B68674A23F4802313609D
:101E0C007B685B68002B13D0FFF7B6FC386108E0E9
:101E1C00FFF7B2FC02463B69D31A642B01D90323AA
:101E2C00FAE15D4B1B6803F40033002BF0D014E097
:101E3C00FFF7A2FC386108E0FFF79EFC02463B6905
:101E4C00D31A642B01D90323E6E1534B1B6803F42B
:101E5C000033002BF0D100E000BF7B681B6803F05F
:101E6C000203002B63D04C4B5B6803F00C03002B7C
:101E7C000BD0494B5B6803F00C03082B1CD1464B71
:101E8C005B6803F48033002B16D1434B1B6803F0C3
:101E9C000203002B05D07B681B69012B01D00123A9
:101EAC00BAE13D4B1B6823F0F8027B685B69DB00F1
:101EBC00394913430B603AE07B681B69002B20D037
:101ECC00364B01221A60FFF757FC386108E0FFF728
:101EDC0053FC02463B69D31A022B01D903239BE125
:101EEC002D4B1B6803F00203002BF0D02A4B1B6810
:101EFC0023F0F8027B685B69DB00274913430B6016
:101F0C0015E0264B00221A60FFF736FC386108E01A
:101F1C00FFF732FC02463B69D31A022B01D903238B
:101F2C007AE11D4B1B6803F00203002BF0D17B6898
:101F3C001B6803F00803002B3AD07B689B69002BCD
:101F4C0019D0174B01221A60FFF716FC386108E014
:101F5C00FFF712FC02463B69D31A022B01D903236B
:101F6C005AE10D4B5B6A03F00203002BF0D0012009
:101F7C0000F09AFA1CE00A4B00221A60FFF7FCFBF7
:101F8C0038610FE0FFF7F8FB02463B69D31A022BCE
:101F9C0008D9032340E100BF001002400000424278
:101FAC00800442429E4B5B6A03F00203002BE9D192
:101FBC007B681B6803F00403002B00F0A680002351
:101FCC00FB75974BDB6903F08053002B0DD1944BC1
:101FDC00DB69934A43F08053D361914BDB6903F087
:101FEC008053BB60BB680123FB758E4B1B6803F4ED
:101FFC008073002B18D18B4B1B688A4A43F4807377
:10200C001360FFF7B9FB386108E0FFF7B5FB024638
:10201C003B69D31A642B01D90323FDE0814B1B6868
:10202C0003F48073002BF0D07B68DB68012B06D1A6
:10203C007B4B1B6A7A4A43F0010313622DE07B68E9
:10204C00DB68002B0CD1764B1B6A754A23F001031D
:10205C001362734B1B6A724A23F0040313621CE075
:10206C007B68DB68052B0CD16D4B1B6A6C4A43F00B
:10207C00040313626A4B1B6A694A43F0010313623F
:10208C000BE0674B1B6A664A23F001031362644B37
:10209C001B6A634A23F0040313627B68DB68002B22
:1020AC0015D0FFF769FB38610AE0FFF765FB0246C4
:1020BC003B69D31A41F28832934201D90323ABE036
:1020CC00574B1B6A03F00203002BEED014E0FFF712
:1020DC0053FB38610AE0FFF74FFB02463B69D31A0A
:1020EC0041F28832934201D9032395E04C4B1B6A91
:1020FC0003F00203002BEED1FB7D012B05D1484BE5
:10210C00DB69474A23F08053D3617B68DB69002B82
:10211C0000F08180424B5B6803F00C03082B61D00C
:10212C007B68DB69022B46D13F4B00221A60FFF71C
:10213C0023FB386108E0FFF71FFB02463B69D31A0B
:10214C00022B01D9032367E0354B1B6803F00073A6
:10215C00002BF0D17B681B6AB3F5803F08D1304B64
:10216C005B6823F400327B689B682D4913434B60FA
:10217C002B4B5B6823F474127B68196A7B685B6A6F
:10218C000B43274913434B60274B01221A60FFF77F
:10219C00F3FA386108E0FFF7EFFA02463B69D31A0D
:1021AC00022B01D9032337E01D4B1B6803F000738E
:1021BC00002BF0D02FE01C4B00221A60FFF7DCFA4A
:1021CC00386108E0FFF7D8FA02463B69D31A022BB4
:1021DC0001D9032320E0124B1B6803F00073002B82
:1021EC00F0D118E07B68DB69012B01D1012313E0EE
:1021FC000B4B5B68FB60FB6803F480327B681B6AEB
:10220C009A4206D1FB6803F470127B685B6A9A42AF
:10221C0001D0012300E0002318461837BD4680BDCD
:10222C0000100240007000406000424280B584B053
:10223C0000AF786039607B68002B01D10123D0E0BE
:10224C006A4B1B6803F007033A689A4210D9674B34
:10225C001B6823F0070265493B6813430B60634B13
:10226C001B6803F007033A689A4201D00123B8E0D7
:10227C007B681B6803F00203002B20D07B681B6873
:10228C0003F00403002B05D0594B5B68584A43F408
:10229C00E06353607B681B6803F00803002B05D0D8
:1022AC00534B5B68524A43F460535360504B5B682A
:1022BC0023F0F0027B689B684D4913434B607B68AD
:1022CC001B6803F00103002B40D07B685B68012B7B
:1022DC0007D1474B1B6803F40033002B15D10123A6
:1022EC007FE07B685B68022B07D1414B1B6803F0D6
:1022FC000073002B09D1012373E03D4B1B6803F0E5
:10230C000203002B01D101236BE0394B5B6823F0F6
:10231C0003027B685B68364913434B60FFF72CFA6A
:10232C00F8600AE0FFF728FA0246FB68D31A41F27C
:10233C008832934201D9032353E02D4B5B6803F0A1
:10234C000C027B685B689B009A42EBD1274B1B68A5
:10235C0003F007033A689A4210D2244B1B6823F00F
:10236C00070222493B6813430B60204B1B6803F0A8
:10237C0007033A689A4201D0012332E07B681B685C
:10238C0003F00403002B08D0194B5B6823F4E062C4
:10239C007B68DB68164913434B607B681B6803F052
:1023AC000803002B09D0124B5B6823F460527B6846
:1023BC001B69DB000E4913434B6000F021F8024609
:1023CC000B4B5B681B0903F00F030A49CB5C22FA29
:1023DC0003F3094A1360094B1B681846FFF78AF987
:1023EC00002318461037BD4680BD00BF00200240B8
:1023FC0000100240DC2E00082C00002030000020D1
:10240C0080B487B000AF0023FB600023BB600023C7
:10241C007B6100237B6000233B611E4B5B68FB6090
:10242C00FB6803F00C03042B02D0082B03D027E02D
:10243C00194B3B6127E0FB689B0C03F00F03174A19
:10244C00D35C7B60FB6803F48033002B10D0114B02
:10245C005B685B0C03F00103114AD35CBB607B68C7
:10246C000D4A02FB03F2BB68B2FBF3F37B6104E0A1
:10247C007B680C4A02FB03F37B617B693B6102E0E6
:10248C00054B3B6100BF3B6918461C37BD4680BC01
:10249C00704700BF0010024000127A00EC2E0008BA
:1024AC00FC2E000800093D0080B485B000AF7860B8
:1024BC000A4B1B680A4AA2FB03235B0A7A6802FBDD
:1024CC0003F3FB6000BFFB685A1EFA60002BF9D1C6
:1024DC0000BF00BF1437BD4680BC70472C000020E5
:1024EC00D34D621080B582B000AF78607B68002B52
:1024FC0001D1012341E07B6893F83D30DBB2002B26
:10250C0006D17B68002283F83C207868FFF724F81A
:10251C007B68022283F83D207B681A687B68043351
:10252C001946104600F056FA7B68012283F84620C3
:10253C007B68012283F83E207B68012283F83F20D0
:10254C007B68012283F840207B68012283F84120BC
:10255C007B68012283F842207B68012283F84320A8
:10256C007B68012283F844207B68012283F8452094
:10257C007B68012283F83D20002318460837BD46AE
:10258C0080BD000080B485B000AF78607B6893F8A4
:10259C003D30DBB2012B01D0012335E07B680222F8
:1025AC0083F83D207B681B68DA687B681B6842F007
:1025BC000102DA607B681B68164A934209D07B687B
:1025CC001B68B3F1804F04D07B681B68124A93429E
:1025DC0011D17B681B689B6803F00703FB60FB68E9
:1025EC00062B10D07B681B681A687B681B6842F04E
:1025FC0001021A6007E07B681B681A687B681B681D
:10260C0042F001021A60002318461437BD4680BC04
:10261C00704700BF002C01400004004080B584B01E
:10262C0000AF78607B681B68DB68FB607B681B68AD
:10263C001B69BB60BB6803F00203002B20D0FB6856
:10264C0003F00203002B1BD07B681B686FF00202A7
:10265C001A617B6801221A777B681B689B6903F0FF
:10266C000303002B03D0786800F098F905E0786834
:10267C0000F08BF9786800F09AF97B6800221A77E1
:10268C00BB6803F00403002B20D0FB6803F00403A9
:10269C00002B1BD07B681B686FF004021A617B68EF
:1026AC0002221A777B681B689B6903F44073002B2A
:1026BC0003D0786800F072F905E0786800F065F9ED
:1026CC00786800F074F97B6800221A77BB6803F015
:1026DC000803002B20D0FB6803F00803002B1BD051
:1026EC007B681B686FF008021A617B6804221A77FA
:1026FC007B681B68DB6903F00303002B03D078684D
:10270C0000F04CF905E0786800F03FF9786800F0CB
:10271C004EF97B6800221A77BB6803F01003002B7C
:10272C0020D0FB6803F01003002B1BD07B681B68C8
:10273C006FF010021A617B6808221A777B681B689D
:10274C00DB6903F44073002B03D0786800F026F9A2
:10275C0005E0786800F019F9786800F028F97B68D2
:10276C0000221A77BB6803F00103002B0CD0FB6826
:10277C0003F00103002B07D07B681B686FF001028C
:10278C001A617868FEF7AAFCBB6803F08003002B83
:10279C000CD0FB6803F08003002B07D07B681B6810
:1027AC006FF080021A61786800F06FFABB6803F072
:1027BC004003002B0CD0FB6803F04003002B07D028
:1027CC007B681B686FF040021A61786800F0F8F8BB
:1027DC00BB6803F02003002B0CD0FB6803F0200334
:1027EC00002B07D07B681B686FF020021A61786899
:1027FC0000F042FA00BF1037BD4680BD80B584B0F2
:10280C0000AF786039600023FB737B6893F83C3031
:10281C00012B01D10223B4E07B68012283F83C2018
:10282C007B68022283F83D207B681B689B68BB6039
:10283C00BB6823F07703BB60BB6823F47F43BB60AA
:10284C007B681B68BA689A603B681B68B3F5005FCD
:10285C003ED0B3F5005F00F28780B3F5805F00F0E7
:10286C008680B3F5805F7FD8702B1AD0702B7BD805
:10287C00602B50D0602B77D8502B3CD0502B73D87A
:10288C00402B58D0402B6FD8302B64D0302B6BD8CA
:10289C00202B60D0202B67D8002B5CD0102B5AD06B
:1028AC0062E07B6818683B6899683B685A683B68CB
:1028BC00DB6800F06AF97B681B689B68BB60BB68CF
:1028CC0043F07703BB607B681B68BA689A604FE083
:1028DC007B6818683B6899683B685A683B68DB689A
:1028EC0000F053F97B681B689A687B681B6842F49C
:1028FC0080429A603CE07B6818683B6859683B688A
:10290C00DB681A4600F0CAF87B681B685021184631
:10291C0000F021F92CE07B6818683B6859683B682B
:10292C00DB681A4600F0E8F87B681B6860211846E3
:10293C0000F011F91CE07B6818683B6859683B682B
:10294C00DB681A4600F0AAF87B681B684021184621
:10295C0000F001F90CE07B681A683B681B681946AB
:10296C00104600F0F8F803E00123FB7300E000BF11
:10297C007B68012283F83D207B68002283F83C2091
:10298C00FB7B18461037BD4680BD80B483B000AFCA
:10299C00786000BF0C37BD4680BC704780B483B0F4
:1029AC0000AF786000BF0C37BD4680BC704780B468
:1029BC0083B000AF786000BF0C37BD4680BC704759
:1029CC0080B483B000AF786000BF0C37BD4680BCCC
:1029DC007047000080B485B000AF786039607B68C8
:1029EC001B68FB607B682B4A934207D07B68B3F172
:1029FC00804F03D07B68284A934208D1FB6823F0B0
:102A0C007003FB603B685B68FA681343FB607B6890
:102A1C00204A934207D07B68B3F1804F03D07B6888
:102A2C001D4A934208D1FB6823F44073FB603B685A
:102A3C00DB68FA681343FB60FB6823F080023B6899
:102A4C005B691343FB607B68FA681A603B689A68A1
:102A5C007B68DA623B681A687B689A627B680D4A0D
:102A6C00934203D13B681A697B681A637B68012225
:102A7C005A617B681B6903F00103002B05D07B684E
:102A8C001B6923F001027B681A6100BF1437BD4635
:102A9C0080BC7047002C01400004004080B487B01B
:102AAC0000AFF860B9607A60FB681B6A7B61FB68F9
:102ABC001B6A23F00102FB681A62FB689B693B618D
:102ACC003B6923F0F0033B617B681B013A691343BC
:102ADC003B617B6923F00A037B617A69BB68134312
:102AEC007B61FB683A699A61FB687A691A6200BF7C
:102AFC001C37BD4680BC704780B487B000AFF8600F
:102B0C00B9607A60FB681B6A7B61FB681B6A23F007
:102B1C001002FB681A62FB689B693B613B6923F4FA
:102B2C0070433B617B681B033A6913433B617B69D0
:102B3C0023F0A0037B61BB681B017A6913437B61A3
:102B4C00FB683A699A61FB687A691A6200BF1C37A4
:102B5C00BD4680BC704780B485B000AF78603960EA
:102B6C007B689B68FB60FB6823F07003FB603A6832
:102B7C00FB68134343F00703FB607B68FA689A60B9
:102B8C0000BF1437BD4680BC704780B487B000AF1F
:102B9C00F860B9607A603B60FB689B687B617B691D
:102BAC0023F47F437B613B681A027B681A43BB6842
:102BBC0013437A6913437B61FB687A699A6000BF9F
:102BCC001C37BD4680BC704780B485B000AF7860C0
:102BDC0039607B6893F83C30012B01D1022341E032
:102BEC007B68012283F83C207B68022283F83D201D
:102BFC007B681B685B68FB607B681B689B68BB60C1
:102C0C00FB6823F07003FB603B681B68FA68134396
:102C1C00FB607B681B68FA685A607B681B68144A07
:102C2C00934209D07B681B68B3F1804F04D07B685A
:102C3C001B68104A93420CD1BB6823F08003BB6025
:102C4C003B685B68BA681343BB607B681B68BA68F7
:102C5C009A607B68012283F83D207B68002283F810
:102C6C003C20002318461437BD4680BC704700BF7B
:102C7C00002C01400004004080B483B000AF7860A9
:102C8C0000BF0C37BD4680BC704780B483B000AF2A
:102C9C00786000BF0C37BD4680BC7047014B18688C
:102CAC00704700BF3800002070B500260C4D0D4C4D
:102CBC00641BA410A64209D100F0F6F800260A4DB8
:102CCC000A4C641BA410A64205D170BD55F8043BF8
:102CDC0098470136EEE755F8043B98470136F2E782
:102CEC00002F0008002F0008002F0008042F0008F8
:102CFC00024B0146186800F05FB800BF3800002096
:102D0C00024B0146186800F00BB800BF38000020D9
:102D1C0003460244934200D1704703F8011BF9E7C4
:102D2C0038B50546002943D051F8043C0C1F002B44
:102D3C00B8BFE41800F0AAF81E4A1368104633B95D
:102D4C00636014602846BDE8384000F0A5B8A34283
:102D5C000AD921686218934201BF1A685B6852183D
:102D6C00226063600460EDE71A465B680BB1A34216
:102D7C00FAD911685018A0420BD1206801445018A0
:102D8C0083421160DED118685B68014411605360A6
:102D9C00D8E702D90C232B60D4E7206821188B428A
:102DAC0001BF19685B680918216063605460C9E74A
:102DBC0038BD00BFF8000020F8B5CD1C25F0030588
:102DCC0008350C2D38BF0C25002D064601DBA94219
:102DDC0003D90C2333600020F8BD00F057F82149CB
:102DEC000A6814469CB9204F3B6823B921463046EB
:102DFC0000F03CF838602946304600F037F8431CA8
:102E0C0023D10C233046336000F046F8E3E7236807
:102E1C005B1B17D40B2B03D923601C44256004E0E7
:102E2C006368A2420CBF0B605360304600F034F86C
:102E3C0004F10B00231D20F00700C21ACCD01B1A82
:102E4C00A350C9E722466468CCE7C41C24F00304F1
:102E5C00A042E3D0211A304600F008F80130DDD151
:102E6C00CFE700BFF8000020FC00002038B500239D
:102E7C00054D044608462B60FEF7C4FB431C02D1EB
:102E8C002B6803B1236038BD4C010020014800F0D1
:102E9C0009B800BF54010020014800F004B800BF7D
:102EAC005401002070477047F8B500BFF8BC08BC4F
:102EBC009E467047F8B500BFF8BC08BC9E467047EC
:102ECC00407924301912027800100846064E48004A
:102EDC0000000000000000000102030406070809BE
:102EEC0002030405060708090A0B0C0D0E0F10103F
:042EFC0001020000CF
:042F00003101000893
:042F04000D010008B3
:102F0800070000000B0000000100000005000000A1
:102F1800020000000300000005000000030000009C
:102F280001010100010101000101010000127A0004
:102F380010000000010000003C000020000000001C
:102F48000000000000000000000000000000000079
:102F58000000000000000000000000000000000069
:102F68000000000000000000000000000000000059
:102F78000000000000000000000000000000000049
:102F88000000000000000000000000000000000039
:0C2F98000000000000000000000000002D
:040000050800168950
:00000001FF
